:10000000000800201110000069100000F10C000031
:1000100000000000000000000000000000000000E0
:100020000000000000000000000000006910000057
:1000300000000000000000006910000069100000CE
:1000400069100000691000006910000069100000CC
:1000500069100000691000006910000069100000BC
:10006000691000006D0800006910000069100000B0
:10007000F50600006910000069100000691000001A
:10008000691000006910000069100000691000008C
:10009000691000006910000069100000691000007C
:1000A000691000006910000069100000691000006C
:1000B000691000006910000069100000691000005C
:1000C00010B5064C2378002B07D1054B002B02D02E
:1000D000044800E000BF0123237010BD8000002011
:1000E00000000000C4250000084B10B5002B03D011
:1000F0000749084800E000BF07480368002B00D10B
:1001000010BD064B002BFBD09847F9E7000000001C
:1001100084000020C42500007C00002000000000B6
:10012000164B002B00D1144B9D46402292029A1A86
:10013000924600218B460F461348144A121A01F0CA
:10014000E4F80F4B002B00D098470E4B002B00D04B
:1001500098470020002104000D000D48002802D01F
:100160000C4800E000BF01F099F82000290000F0E1
:10017000F1FB01F07DF8C0460000080000080020F7
:10018000000000000000000080000020500100205E
:10019000000000000000000010B51620592488213E
:1001A000084B5C60586059605A68002AF9D00423F3
:1001B000054A51680B4353600123044A11680B43FD
:1001C000136010BDFC0000400002004000C0004071
:1001D00010B50D4B0D4C19602060012380280CD800
:1001E000DB18082909D801F07DF80023FF21084A0F
:1001F00010602068834202D30023180010BD1068ED
:10020000C1540133F5E7C0464001002044010020FD
:100210003C010020F7B5FFF7BFFF354E00253368DE
:10022000580001F05FF804003768BD4219D300227E
:100230001300304D30492868BB421CD1002A00D041
:10024000286028682D4F43001B5B40028B421AD167
:100250007B692B49C01800F0B5FC0222294B1A60BB
:10026000F7BD264B68025B69C01800F09DFC6B006F
:10027000E0520135D8E75E00A65B8E4201D018003F
:1002800001220133D8E77B69C01800F08DFC030C14
:10029000DAB2000EFF2AE0D0FF2204241A4E1340E7
:1002A00031680192C8542A687B695002C01800194D
:1002B00000F07AFC030AC2B2DBB2FF2A02D1114B72
:1002C0001C60CDE7019A316802408B54030CDAB20E
:1002D000000EFF2A01D10234F1E7019A04341340E1
:1002E0003268D05480239B009C42DCD1B8E7C046E2
:1002F000400100209C000020FFFF000000C00040E3
:100300000000FFFF480100203C01002042B203230F
:10031000002A04DB034B1B681B5C0B7000231800D6
:100320007047C0463C010020F0B5384E384D326869
:100330006B69500285B0C01800F036FC33680700C6
:1003400001330193334B019A1B689A4202D1002377
:1003500001370193FFF720FF2F4B1A6813009C1AF7
:100360000133591E0978FF29F9D02304BFB21F4376
:10037000019B68695B0209063943C018029300F0CB
:1003800021FC002204271100013423040393234B92
:100390001B689C4218D3224C2760012A0AD1214BAA
:1003A00068691943029B1818C01900F00BFC2368F8
:1003B0000233236032686B695002C01800F0B2FB50
:1003C000019B336005B0F0BD134B1B681B5DFF2B19
:1003D00005D0002A0BD121431B0219430132802092
:1003E00040028446039B013463440393CFE7039A9E
:1003F0001B06114319436869029B1818C01900F0C5
:10040000E1FB002104370A00E9E7C0469C00002018
:1004100000C00040400100203C01002044010020B9
:10042000480100200000FFFFF7B5244B04001B68C3
:10043000019103209C4226D8214D00202B681B5D92
:100440008B4220D0FFF7A8FE1E4B1F4F1B681F4E8C
:100450009A0719D101991E48090221437A6901437B
:1004600030689B184002C01800F0ACFB6A46FF21C0
:100470002B68127949001A55124A13688B4219D118
:10048000FFF752FF0020FEBD7A6931689B184802D1
:10049000023BC01800F088FB019A2104120683B2C7
:1004A00011431943074B78691B68C0183368023839
:1004B0005B02D8E702331360E4E7C0464401002042
:1004C0003C0100204801002000C000409C000020AA
:1004D0000000FFFF10B5162059248821034B5C60F3
:1004E000586059605A68002AF9D010BDFC000040DD
:1004F00030B585B00400022102A800F071FB00288D
:1005000005DA1F4801F02CF80120404236E00120B6
:10051000029B184003D1039A0192A2422ED01022CE
:1005200001251849AB43086802430A6002A802216A
:100530000293039400F074FB0028E5DB022102A87B
:1005400000F04EFB029B2B4202D1039B9C4208D041
:100550000D4801F005F800F0DDFA00220B4B5A605F
:10056000D2E721000A4800F081FF00F0D1FB00280B
:10057000FBD0802301220020DB059A6005B030BD4E
:10058000E623000000C0004000240000FC00004002
:100590001E240000802110B50122C901014800F08D
:1005A0005BFB10BD40400040002070B5094C451C6D
:1005B0002178EDB24118C9B2FFF736FF2800302D7F
:1005C000F4D123780133237000F0A4FA0022024B07
:1005D0005A6070BD2A010020FC00004073B56B46D4
:1005E00000240726DD1D2C70E0B22900FFF78EFEE7
:1005F00001342978054800F039FF344202D104481B
:1006000000F0AEFF302CEFD173BDC046EA220000EF
:10061000C222000010B58AB026220F49684600F0B9
:100620006BFE04220D4C236813420BD093432360CE
:10063000FFF7D4FF684600F0AFFF694602000848A4
:1006400000F0B3FC08222368134203D093432360D5
:10065000FFF7AAFF0AB010BDC4220000A0000020CE
:100660000000074010B5FFF735FF00F095FAF820BD
:10067000C001FFF73DFF002802DA054800F070FFD7
:1006800002213020FFF7A4FDFFF7C4FD10BDC046D6
:100690009C22000002210F4A70B513680B4218D04B
:1006A0008B430D480D49136000F0E0FE0C4C0D48E3
:1006B0002178C9B200F0DAFE0B4D0C482978C9B296
:1006C00000F0D4FE11210A4800F0E8FB002323705B
:1006D0002B7070BDA00000206C230000A80000203B
:1006E000280100208A23000029010020B8230000EF
:1006F00000000740204B70B5DA69D20516D51F49B6
:100700001F4C0A781F4D0132D2B20A700321228891
:100710001868C0B2A854013292B27F2A00D90022D0
:100720000139C9B20029F3D1228070BDDA69D2043F
:10073000FBD580251449124C0A78124E0132D2B2F0
:100740000A702188ED0198694A1C92B228420DD0A6
:1007500011215A688A435A6000230C4A238013707F
:100760000B4A023311680B431360DEE71868C0B20E
:1007700070541100E7E7C046000007402801002040
:100780002C010020A80000202901002000000020EA
:10079000A000002010B50A4C200000F06BF9802169
:1007A0000022C904200000F021F98021C905CB6B8B
:1007B000044A1A40CC23DB031343CB6310BDC0466D
:1007C000103D805FFFFF00FF10B5204800F0D0FA19
:1007D000E1211F4C4902200000F064FB142120009D
:1007E00000F0D8FBF022A36893431A0010231343B0
:1007F000A36011236268134380226360154B52018A
:100800001A6000F0EBF80100134800F02FFE00F032
:10081000B1F80100114800F029FE00F0B7F801001E
:100820000F4800F023FE00F0B9F801000D4800F079
:100830001DFE00F0C3F801000B4800F017FE8023F6
:100840005B05A2691A42FCD010BDC046100000042E
:100850000000074000E100E0F32200000C2300004C
:10086000232300003A230000532300000123144AED
:10087000916819420ED0F421124893600288FF312A
:100880008A4208D8D21802800F4A13888B420ED8A9
:10089000013313807047002202800C4A10684340E5
:1008A000136004230A4A106803431360ECE7002333
:1008B0001380074A083311680B431360EAE7C04608
:1008C00020000540A4000020A60000207848004039
:1008D000A0000020FA22802110B50A4C92000905E0
:1008E000200000F08FFA802322689B0513438022AA
:1008F0002360054B92001A6080232268DB051343B6
:10090000236010BD2000054000E100E010B5FFF7B6
:10091000E1FD042000F0A6F80C4C102000F0C2F815
:100920000021072000F0D0F8FFF734FF200000F08E
:10093000A1F8802100228901200000F057F800F082
:1009400095FB0022024B5A6010BDC0460300C05EFA
:10095000FC00004010B5FFF7D9FFFFF735FFFFF7A8
:1009600081FEFFF717FEFFF7B5FFFFF793FEFFF7D6
:1009700051FEFAE7034B18680123184000D00248E3
:100980007047C046000200400048E801024B18686A
:100990008007C00FC00370470002004010B500F090
:1009A00065FB0722034B5B6B1340034A1068D8407A
:1009B00010BDC046000200400C00002010B500F041
:1009C00055FB044B044A5B6B10685B065B0FD84019
:1009D00010BDC046000200400C00002010B500F021
:1009E00045FB014B186810BD0C000020F0B589B024
:1009F0006D46194B9446C4CBC4C51B686C462B602E
:100A0000002304930593069310330793830ADBB204
:100A100004AE002B0DD08705FF0EBB4062460503D8
:100A2000AD0FAD00AE590D4D761935689D432A4383
:100A3000326003015B0F0CD08200C001C00E834006
:100A4000920F9200A458064AA41822689A431143B0
:100A5000216009B0F0BDC0464024000020020040E3
:100A600010020040024A1368184310607047C046E5
:100A7000000200407FB501AA1100084B103370CB73
:100A800070C1830F9B009A58054BD2181F23184042
:100A90001E3B834011680B4313607FBD4024000060
:100AA00004020040064B07490A6D0240904201D102
:100AB00001207047013B002BF6D11800F9E7C04632
:100AC00081F5200000020040F7B50425104C060017
:100AD000236D1020019323680F002B432360FFF741
:100AE000E1FF07220F21236913432361236A8B430C
:100AF0001F432762236993431E43266100F0B6FA21
:100B0000019BDB0602D42368AB432360F7BDC046DC
:100B1000000200400121024A13688B4313607047B2
:100B200000C00040802310B59B030400984211D000
:100B300022220B4BDA60213A5C601A61186910407E
:100B4000FCD140221968114208D0196801380A43C3
:100B50001A6003E000F006F80028E9D010BDC04696
:100B600000C0004022220A4BDA60802292035A60C1
:100B7000084A9A6001221A6118691040FCD140228B
:100B80001968114203D0196801380A431A60704786
:100B900000C0004003AA55000123024A11680B431C
:100BA0001360704700C000400022054BDA6001323C
:100BB00058601A6119691142FCD198687047C046A3
:100BC00000C000402122054BDA60203A586099604D
:100BD0001A6119691142FCD17047C04600C000403B
:100BE00070B50400C02080030D00FFF7DDFF20601A
:100BF000032D0ED8012D01D8002070BD0648FFF747
:100C0000D3FF6060032DF7D10448FFF7CDFFA0604C
:100C1000F2E701204042F0E7040030000800300015
:100C2000F7B5002504002F000191019B9D4201D1E1
:100C30003800FEBDC0231B03EE18B600216830004B
:100C4000FFF7C0FF3000FFF7AFFF2368984200D0E6
:100C5000012701350434E8E7F0B500230326012419
:100C60009C40214208D035005F00BD400468AC4381
:100C70001500BD402C4304600133102BEFD1F0BDB3
:100C800010B50400114800F06BFC2168104800F01A
:100C9000EDFB61680F4800F0E9FBA1680E4800F029
:100CA000E5FBE1680D4800F0E1FB21690C4800F02C
:100CB000DDFB61690B4800F0D9FBA1690A4800F02F
:100CC000D5FBE169094800F0D1FBFEE75C24000098
:100CD000722400007E2400008A2400009624000074
:100CE000A2240000AE240000BA240000C6240000A4
:100CF000064B04207146084203D0EFF30980714689
:100D0000BEE7EFF30880BBE7FEE7C046810C0000BA
:100D1000024B9869C000C00F7047C04600000740F2
:100D2000802070B50D250B4B8C180004A14201D119
:100D3000100070BD9E690642FCD100268E571E60D1
:100D400001268E570A2E03D19E690642FCD11D60F2
:100D50000131EBE7000007408022044BD201986983
:100D60001042FCD11B6801200B7070470000074047
:100D7000064A030E9B1801220002000A82401968ED
:100D800011431960196891431960704708000040C9
:100D900070B588B06946164B6A4670CB70C170CB8F
:100DA00070C130CB30C1134B1349984207D14B6906
:100DB0005B055B0F022B16D09B00D05815E00F4B44
:100DC000984202D14B695B04F3E70D4C0723496954
:100DD000A04206D1090C0B40022BEDD1FFF7EEFD2E
:100DE00003E0090DF7E7FFF7D9FD08B070BDC04675
:100DF000D42400000000054000020040200005400F
:100E000000100540F8B506000F001400FFF7C0FF02
:100E100005004308A34210D9210000F097F9040E01
:100E200002D0611C00F092F92743611C37604143F6
:100E30007060280000F08AF9F8BD00240220F3E772
:100E4000012307B5A02101AA1370DB18537093701A
:100E50000233D3700E4BC9021B6C00200B4213D11E
:100E6000190312D40B4899030ED4D905C90D0231C8
:100E7000800848431904890F525C9904C90E023155
:100E8000514300F063F980000EBD0348EBE7C04614
:100E9000000200400048E801001BB7004368194306
:100EA00041607047F0B589B002AE3200324B0500A8
:100EB0000F0013CB13C213CB13C2304A954230D16B
:100EC0002F4B5C69196A6401640F09050B0F0193CC
:100ED00000232B630333EB60AB682A490B40AB6004
:100EE000012C37D1FFF7ACFF7060002F17D00199AC
:100EF000A4000131305900F029F9040078080019E4
:100F0000390000F023F9204B0238984230D9F8001C
:100F10000019390000F01AF900090238686209B0B6
:100F2000F0BD1A4B9D4206D1154B5C69196A6400ED
:100F3000640F0904CAE7164B9D4207D10F21104BDD
:100F4000DC691B6B6401640F0B40C0E70023019355
:100F50001C00BDE7042CC8D1954202D00C4B9D4229
:100F600003D1FFF71BFD3061BFE7FFF727FDFAE76D
:100F7000C0239B051843D1E7F4240000000007407C
:100F8000000200400FFFF0FFFFFF000000100740CD
:100F900000200740FF22036A934319438023016224
:100FA00042681B0113434360704770B580250023DE
:100FB0002D0493420BD08024E40586692E4203D190
:100FC000CC5C01330460F4E7013C002CF5D118003F
:100FD00070BD10B500F046F958230360012040426F
:100FE00010BD10B500F03EF95823036001204042C7
:100FF00010BD10B500F036F958230360002010BD75
:1010000010B500F02FF9582303600120404210BDB5
:101010000E490F4A0F4B9B1A03DD043BC858D050B2
:10102000FBDC0D4859210160162101608821016017
:101030000A480B4901600B48012101600648002164
:10104000016000F065F8FFF76BF80000D0250000A4
:10105000000000208000002000010040240000402B
:10106000A55A000080020040FEE7C046072337B5BE
:10107000A0211E4D01AA2C69C9021C40063B137019
:101080000133537093700233D3702B6C00200B42EA
:1010900013D1190328D4164899030ED4D905C90DC4
:1010A0000231800848431904890F525C9904C90E23
:1010B0000231514300F04AF880000E4B1860022CB8
:1010C00002D00D4BA400E0580F23296A19400131CA
:1010D00000F03CF8094B0A4918600A4BC01800F0B0
:1010E00035F8094B186037BD0848D5E700020040C5
:1010F0000048E801080000200C2500000C0000203A
:1011000040420F0020A1070004000020001BB70090
:1011100010B5162059248821094B5C60586059602D
:101120005A68002AF9D0074A07481168014011603F
:10113000E0211068C9030143116000225A6010BD0C
:10114000FC00004000020040FFFF8FFF0022430828
:101150008B4274D303098B425FD3030A8B4244D37F
:10116000030B8B4228D3030C8B420DD3FF220902C1
:1011700012BA030C8B4202D31212090265D0030B80
:101180008B4219D300E0090AC30B8B4201D3CB0376
:10119000C01A5241830B8B4201D38B03C01A5241B8
:1011A000430B8B4201D34B03C01A5241030B8B42BA
:1011B00001D30B03C01A5241C30A8B4201D3CB02A5
:1011C000C01A5241830A8B4201D38B02C01A52418A
:1011D000430A8B4201D34B02C01A5241030A8B428D
:1011E00001D30B02C01A5241CDD2C3098B4201D3A5
:1011F000CB01C01A524183098B4201D38B01C01A23
:10120000524143098B4201D34B01C01A5241030999
:101210008B4201D30B01C01A5241C3088B4201D348
:10122000CB00C01A524183088B4201D38B00C01AF5
:10123000524143088B4201D34B00C01A5241411A1C
:1012400000D20146524110467047FFE701B5002029
:1012500000F006F802BDC0460029F7D076E77047D7
:101260007047C046014B18687047C0461000002008
:10127000084B10B50400002B02D0002100E000BF95
:10128000054B1868836A002B00D09847200000F0B7
:10129000F7FFC046000000002C25000070B50026B6
:1012A0000C4D0D4C641BA410A64209D1002600F081
:1012B000E9FF0A4D0A4C641BA410A64205D170BD7B
:1012C000B300EB5898470136EEE7B300EB58984768
:1012D0000136F2E774000020740000207400002042
:1012E0007800002010B5034B0100186800F060F88A
:1012F00010BDC04610000020002310B59A4200D156
:1013000010BDCC5CC4540133F8E70300821893424B
:1013100000D1704719700133F9E7000070B505007E
:10132000002910D00C1F2368002B00DAE4182800D5
:1013300000F000FC1D4A1368002B05D163601460A7
:10134000280000F0F8FB70BDA34209D9216860189D
:101350008342F3D118685B6841182160EEE71300FF
:101360005A68002A01D0A242F9D919685818A04237
:101370000BD120680918581819608242E0D1106812
:101380005268411819605A60DAE7A04202D90C236A
:101390002B60D5E721686018824203D1106852683B
:1013A0004118216062605C60CAE7C04630010020DD
:1013B000032370B5CD1C9D43083506000C2D1ED2AD
:1013C0000C25A9421DD8300000F0B4FB254A146852
:1013D0002100002919D1244C2368002B03D13000AF
:1013E00000F0C8F820602900300000F0C3F8431C6A
:1013F0002CD10C233000336000F09DFB03E0002D66
:10140000DFDA0C233360002070BD0B685B1B1AD43D
:101410000B2B03D90B60CC18256003E08C420ED156
:1014200063681360300000F086FB200007220B3059
:10143000231D9043C31AE7D05A42E250E4E74B68B9
:1014400063600C00EEE70C004968C2E70323C41C8C
:101450009C43A042E0D0211A300000F08BF8431CDE
:10146000DAD1C6E730010020340100200FB40B4B65
:1014700013B51C68002C05D0A369002B02D12000F5
:1014800000F056FA05AB049AA1682000019300F021
:101490007BFB16BC08BC04B01847C04610000020F7
:1014A00070B505000E00002804D08369002B01D11F
:1014B00000F03EFAAB69AC68002B02D1280000F0C6
:1014C00037FA244B9C420FD16C68A3891B0702D5C5
:1014D0002369002B20D12100280000F0BBF8002850
:1014E0001AD00120404270BD1B4B9C4201D1AC6818
:1014F000EBE71A4B9C42E8D1EC68E6E7013B01368A
:10150000A360002B04DAA269934216DB0A2914D0E7
:1015100023685A1C226019703178A3680029EDD124
:10152000013BA360002B0FDA22000A31280000F0F3
:101530003BF8431CD5D00A20D5E72200280000F054
:1015400033F8431CE8D1CCE70A2023685A1C2260F8
:101550001870C8E7502500007025000030250000F5
:1015600010B5034B01001868FFF79AFF10BDC04685
:1015700010000020002370B5064C05000800236011
:1015800000F070FE431C03D12368002B00D02B60B9
:1015900070BDC0464C0100200023C25C0133002A0C
:1015A000FBD1581E70470000F8B505000E0014006E
:1015B000002804D08369002B01D100F0B9F9224B37
:1015C0009C422DD16C68A369A360A3891B0731D508
:1015D0002369002B2ED023682269F7B2981A636919
:1015E000F6B2984205DB2100280000F033F900280C
:1015F00026D1A3680130013BA36023685A1C2260F6
:101600001F706369984204D0A389DB071AD50A2E9C
:1016100018D12100280000F01DF9002812D00FE099
:101620000A4B9C4201D1AC68CDE7094B9C42CAD120
:10163000EC68C8E72100280000F00CF80028CAD0A8
:10164000012676423000F8BD5025000070250000CC
:1016500030250000364B70B51D6806000C00002DCB
:1016600005D0AB69002B02D1280000F061F9314BA5
:101670009C420FD16C680C23E25E93B219072DD403
:10168000D90611D409230120336037331343A381D2
:10169000404270BD284B9C4201D1AC68EBE7274B20
:1016A0009C42E8D1EC68E6E75B0713D5616B002943
:1016B00008D023004433994202D03000FFF72EFEB9
:1016C000002363632422A3899343A38100236360DF
:1016D000236923600823A2891343A3812369002B74
:1016E0000BD1A0218022A389890092000B40934254
:1016F00003D02100300000F0D9F90123A289134062
:1017000011D00023A36063695B42A36100202369B9
:101710008342BED10C23E25E1306BAD540231343A5
:10172000A3810138B5E7920700D46369A360EDE7B0
:10173000100000205025000070250000302500001A
:10174000F7B58A8905000C00130760D44B68002B9D
:1017500004DC0B6C002B01DC0020FEBDE76A002FCF
:10176000FAD000232E682B6080235B011A4034D00E
:10177000606DA3895B0706D56368C01A636B002B95
:1017800001D0236CC01A0200216A00232800E76AF6
:10179000B847A189431C06D12B681D2B31D82C4A90
:1017A000DA40D3072DD50023636023692360CB047F
:1017B00005D5431C02D12B68002B00D16065616BFD
:1017C0002E600029C8D023004433994202D028005B
:1017D000FFF7A4FD00206063BFE70123216A280012
:1017E000B847431CC5D12B68002BC2D01D2B01D09C
:1017F000162B01D12E60AFE74023A2891343A381AA
:10180000ABE740230B430120A3814042A5E70F69CA
:10181000002FA1D00B680F60DB1B01930023920700
:1018200000D14B69A360019B002B00DC94E7019B76
:101830003A00216A2800A66AB047002803DC40234A
:10184000A2891343DFE7019B3F181B1A0193EAE7C4
:10185000010040200B6970B505000C00002B01D180
:10186000002070BD002804D08369002B01D100F056
:101870005FF80B4B9C4209D16C680C22A35E002BD5
:10188000EED021002800FFF75BFFEAE7054B9C4202
:1018900001D1AC68F1E7044B9C42EED1EC68ECE777
:1018A00050250000702500003025000010B50249C9
:1018B00000F0B2F810BDC04655180000002310B566
:1018C000040003604360836081814366C2810361D9
:1018D00043618361190008225C30FFF716FD054B58
:1018E00024626362044BA362044BE362044B2363F0
:1018F00010BDC046D1200000F920000031210000B9
:101900005D21000070B568254A1E55430E00290070
:101910007431FFF74DFD041E08D000212A0001603C
:1019200046600C30A0606832FFF7EFFC200070BD0D
:10193000836913B50400002B28D18364C364036555
:10194000134B144A1B6882620193984201D1012310
:101950008361200000F020F86060200000F01CF897
:10196000A060200000F018F80022E0600421606808
:10197000FFF7A4FF01220921A068FFF79FFF0222C1
:101980001221E068FFF79AFF0123A36113BDC0464F
:101990002C250000AD180000F8B51E4B07001E688E
:1019A000B369002B02D13000FFF7C2FF4836B4689C
:1019B0007368013B04D53368002B07D03668F6E71F
:1019C0000C22A55E002D0DD06834F2E7042138000A
:1019D000FFF798FF30600028F0D10C2304003B6033
:1019E0002000F8BD012320005B42E3810233A38184
:1019F00065662560A560656025616561A561082251
:101A000029005C30FFF781FC6563A563A564E5648C
:101A1000E6E7C0462C250000F7B5040007000026C5
:101A200001914834002C01D13000FEBD6368A568E7
:101A30000093009B013B009301D52468F2E7AB893A
:101A4000012B08D90E22AB5E013304D029003800E7
:101A5000019B984706436835EBE7000070B50E0020
:101A60001D000E23C95E90B01400002907DA002380
:101A70002B60B3891B0611D48023DB000FE001AA81
:101A800000F098FB0028F2DBF022029B12021340C8
:101A9000054A9B185A4253412B60EDE74023002032
:101AA000236010B070BDC04600E0FFFFF7B502260E
:101AB0008B8905000C00334206D023004733236096
:101AC000236101236361F7BD01AB6A46FFF7C6FFDF
:101AD000009907002800FFF76BFC002808D10C22B2
:101AE000A35E9A05EFD4032293431E43A681E4E745
:101AF0000F4BAB628023A28920601343A381009B1C
:101B000020616361019B002B0DD00E23E15E280054
:101B100000F062FB002806D00322A38993431A0039
:101B200001231343A381A0893843A081CBE7C0469A
:101B3000AD18000070477047936810B5013B936083
:101B4000002B05DA9469A34208DBCBB20A2B05D03F
:101B50001368581C10601970C8B210BDFFF724FD3F
:101B6000FBE7F8B506000F001400D518AC4201D110
:101B7000002007E021783A003000FFF7DDFF013454
:101B8000431CF3D1F8BD0000F0B59FB006000F0074
:101B900014000593002804D08369002B01D1FFF7BE
:101BA000C7FE7F4B9F425CD17768BB891B0762D51C
:101BB0003B69002B5FD0002306AD6B6120336B7651
:101BC0001033AB760294029C2378002B5DD1029BEC
:101BD000E31A04930DD0049B029A39003000FFF7FA
:101BE000C0FF431C00D1CCE06A69049B9446634467
:101BF0006B612378002B00D1C3E001220023524205
:101C00006A6002A95432521801342B60EB60AB6059
:101C10001370AB6521780522624800F003FB631C5A
:101C20009C46002835D12968CB0604D5532302AA47
:101C300020309B1818700B0704D553232B2002AAC1
:101C40009B18187023782A2B2CD000200A21099B7E
:101C50002278303A092A00D86BE000282AD009936C
:101C600028E0514B9F4201D1B7689EE74F4B9F42FE
:101C70009BD1F76899E739003000FFF7EBFC0028AB
:101C800099D0012040421FB0F0BD252B9FD00134D8
:101C90009AE7444B2968C01A012383400B432B6009
:101CA0006446B7E7059B181D1B680590002B3ADBBF
:101CB0000993644623782E2B0BD16378621C2A2B60
:101CC0003FD1059B02341A1D1B680592002B35DBA2
:101CD000079321780322364800F0A4FA002807D0A1
:101CE000334B2A68C01A4023834013432B600134CE
:101CF0002178631C06222F480293297600F092FA7D
:101D0000002844D02C4B002B2FD12968059B07229B
:101D1000C90528D59B189343083305936B69039A2B
:101D20009B186B614FE75B42EB6002230B432B6018
:101D3000BFE74B4301349B18012089E701235B4235
:101D4000C6E7002314000A201A006B60217830399E
:101D5000092903D9002BBCD00792BAE742430134CA
:101D600052180123F2E70733D5E705AB00933A0099
:101D7000124B2900300000E000BF0390039B0133A9
:101D8000CCD1BB895B0600D57BE70B987BE705AB25
:101D900000933A00094B2900300000F07FF8ECE78F
:101DA000502500009025000070250000302500001F
:101DB000962500009A25000000000000631B00002B
:101DC000F7B5150001938A680B6900900C009342E7
:101DD00000DA130022002B6043321278002A01D06F
:101DE00001332B6023689B0602D52B6802332B60DE
:101DF000062723681F4027D0230043331B785A1E31
:101E000093412268920630D422000199433200980F
:101E1000089EB047431C25D0062320682A68E16845
:101E200003400025042B03D18D1AEB43DB171D4023
:101E3000A3682269934201DD9B1AED180027BD4279
:101E400020D1002010E00137E3682A689B1A9F42E6
:101E5000D2DA22000123193201990098089EB04776
:101E6000431CF0D101204042FEBD3020E118433137
:101E7000087021005A1C45310978A21843320233F8
:101E80001170C1E7220001231A3201990098089EBF
:101E9000B047431CE6D00137D1E70000F0B58BB066
:101EA00006920A0043320793059004920A7E0C00C2
:101EB000109B6E2A00D18FE017D8632A2CD008D847
:101EC000002A00D199E0582A54D0260042363270B8
:101ED00029E0642A01D0692AF7D121681A68080626
:101EE00023D5111D1960156825E0732A00D188E0FB
:101EF00008D86F2A29D0702AE7D1202209680A431E
:101F0000226003E0752A20D0782ADED122007821D1
:101F1000453211706C4A30E00E001A684236111DCD
:101F2000196013683370012379E04906D9D5111D72
:101F300019600023D55E002D03DA2D23049A6D422B
:101F40001370624B0A2703932FE020681968050677
:101F500003D5081D18600D6805E04006F9D50D6829
:101F6000081D1860ADB2594B082703936F2A18D08B
:101F70000A2716E045310A70544A03921A6821680C
:101F8000101D18601568080622D5CB0702D520233E
:101F9000194321601027002D03D1202322689A4382
:101FA00022602300002243331A706368A360002B71
:101FB0005CDB0422216891432160002D58D1049EEE
:101FC000002B64D02600039B42361B7833705EE002
:101FD0004806DAD5ADB2D8E709681A68080605D50B
:101FE000111D1960136862691A6006E04906F7D589
:101FF000111D19601368A28A1A800023049E2361B0
:1020000054E01A68111D19601668002162683000DA
:1020100000F008F9002801D0801B6060636823612C
:102020000023049A137041E0236932000699059851
:10203000079DA847431C43D0236800259B070FD466
:10204000099BE06898423DDA18003BE0220001233A
:10205000193206990598079EB047431C30D00135C8
:10206000E368099A9B1A9D42F0DBE9E7002DA9D0AD
:10207000049E28003900FFF7EFF8039B013E5B5CEC
:10208000280033703900FFF761F8051EF1D1082FE1
:1020900009D12368DB0706D563682269934202DC15
:1020A0003023013E3370049B9B1B2361079B09AACD
:1020B00000932100069B0598FFF782FE431CB3D1D5
:1020C000012040420BB0F0BDB2250000A125000068
:1020D00070B50C000E25495F00F0B0F8002803DB56
:1020E000636D1B18636570BDA389024A1340A38109
:1020F000F9E7C046FFEFFFFFF8B51F008B89050029
:102100000C001600DB0505D50E23C95E0022022354
:1021100000F074F8A389054A28001340A381320017
:102120000E23E15E3B0000F01FF8F8BDFFEFFFFF5C
:1021300070B50C000E25495F00F060F8A389421CC1
:1021400003D1054A1340A38170BD8022520113437D
:10215000A3816065F8E7C046FFEFFFFF10B50E23CF
:10216000C95E00F015F810BD70B50500080011003B
:102170000022064C22601A00FEF7D2FD431C03D158
:102180002368002B00D02B6070BDC0464C0100209E
:10219000002370B5064C050008002360FEF719FF08
:1021A000431C03D12368002B00D02B6070BDC046B8
:1021B0004C010020002370B5064C050008001100FA
:1021C0002360FEF70EFF431C03D12368002B00D0D1
:1021D0002B6070BD4C010020002370B5064C05003B
:1021E00008002360FEF705FF431C03D12368002B82
:1021F00000D02B6070BDC0464C01002070B50500BA
:10220000080011000022064C22601A00FEF7F8FEBA
:10221000431C03D12368002B00D02B6070BDC04647
:102220004C010020C9B28218904201D100207047B1
:1022300003788B42FBD00130F6E7000070B5050053
:10224000080011000022064C22601A00FEF784FDEF
:10225000431C03D12368002B00D02B6070BDC04607
:102260004C010020044A1368002B03D0181810609A
:1022700018007047014BF9E7380100205001002099
:10228000FEE7C046F8B5C046F8BC08BC9E4670479D
:10229000F8B5C046F8BC08BC9E4670474661696CFC
:1022A000656420746F2073657420446174612046F6
:1022B0006C61736820626173652061646472657328
:1022C00073210D000D0A456D756C6174655F4545A0
:1022D00050524F4D5F50726F636573732066696E25
:1022E00069736820210D0A0D0A00307825325820C4
:1022F0002C20000D0A434C4B5F47657443505546F4
:10230000726571203A202538640D0A00434C4B5FFA
:1023100047657448585446726571203A20253864E0
:102320000D0A00434C4B5F4765744C585446726528
:1023300071203A202538640D0A00434C4B5F4765F5
:102340007450434C4B3046726571203A20253864F6
:102350000D0A00434C4B5F47657450434C4B31466C
:10236000726571203A202538640D0A000A554152E1
:102370005430205278205265636569766564204444
:10238000617461203A2025730A005541525430206F
:1023900052782052444120284669666F66756C6CFD
:1023A0002920696E746572727570742074696D6528
:1023B00073203A2025640A00554152543020527847
:1023C000205258544F202854696D656F7574292028
:1023D000696E746572727570742074696D657320AE
:1023E0003A2025640A000A526561642055736572BB
:1023F00020436F6E666967206661696C65642100C1
:102400004572726F723A2050726F6772616D20432D
:102410006F6E666967204661696C656421000A53C6
:102420006574204461746120466C61736820626148
:10243000736520617320307825782E0A0000000033
:102440000000000004000000080000000C00000074
:10245000000000000400000008000000496E204851
:10246000617264204661756C742048616E646C65AD
:102470007200723020203D20307825780A007231B9
:1024800020203D20307825780A00723220203D201F
:10249000307825780A00723320203D203078257866
:1024A0000A00723132203D20307825780A006C72A3
:1024B00020203D20307825780A00706320203D20C0
:1024C000307825780A00707372203D2030782578A6
:1024D0000A0000000048E801008000000000000041
:1024E0000000000000000000009600000000000056
:1024F000006CDC020048E8010000000000800000E1
:10250000006CDC0200000000009600000048E801BA
:102510000080000000D8B80500960000006CDC02C6
:102520000000000000000000006CDC02140000202D
:10253000000000000000000000000000000000009B
:10254000000000000000000000000000000000008B
:10255000000000000000000000000000000000007B
:10256000000000000000000000000000000000006B
:10257000000000000000000000000000000000005B
:10258000000000000000000000000000000000004B
:10259000232D302B2000686C4C006566674546474C
:1025A00000303132333435363738394142434445CF
:1025B000460030313233343536373839616263643E
:0825C000656600000000000048
:0825C80058DBFF7F0100000059
:1025D000010000006000000000D8B80500D8B80570
:1025E00014000020000000005025000070250000AD
:1025F0003025000000000000000000000000000086
:1026000000000000000000000000000000000000CA
:1026100000000000000000000000000000000000BA
:1026200000000000000000000000000000000000AA
:10263000000000000000000000000000000000009A
:1026400000000000E9000000C100000000000000E0
:0400000300001011D8
:00000001FF
