:020000040000FA
:10000000C0020020F100000017010000D500000030
:1000100000000000000000000000000000000000E0
:100020000000000000000000000000001B010000B4
:1000300000000000000000001D0100001F01000082
:100040002101000021010000210100002101000028
:100050002101000021010000210100002101000018
:10006000210100000D0C0000210100002101000011
:10007000610C0000210100002101000021010000AD
:1000800021010000210100002101000021010000E8
:1000900021010000210100002101000021010000D8
:1000A00021010000210100002101000021010000C8
:1000B00021010000210100002101000021010000B8
:1000C0000348854600F0A2F8004800475515000097
:1000D000C002002004207146084202D0EFF30980DC
:1000E00001E0EFF308807146004A10478D070000D9
:1000F0000C480D4901600D4901600D4901600D4A30
:100100000D4911600D4A0E491160002101600D4832
:1001100080470D480047FEE7FEE7FEE7FEE7FEE703
:10012000FEE700000001004059000000160000003A
:100130008800000024000040A55A00008002004012
:1001400001000000F10A0000C100000030B50B46BC
:10015000014600202022012409E00D46D5409D42A1
:1001600005D31D469540491B254695404019154627
:10017000521E002DF1DC30BD03460B439B0703D01C
:1001800009E008C9121F08C0042AFAD203E00B785C
:100190000370401C491C521EF9D27047421C017862
:1001A000401C0029FBD1801A7047F0B51FB40646E9
:1001B000002082B005464024019100901BE0019987
:1001C00022460F46304600F043F8049A059B801AF9
:1001D000994110D310461946224600F029F8361AE4
:1001E0008F410197224601200021009F00F020F856
:1001F00038184D4100902046641E0028DFDC019B2A
:1002000000982946324607B0F0BD0000064C012593
:10021000064E05E0E36807CC2B430C3C98471034AE
:10022000B442F7D3FFF750FF3C1800005C18000001
:1002300010B5202A04DB0146203A9140002010BD71
:10024000914020239C1A0346E3401943904010BD7F
:1002500010B5202A04DB0846203AD040002110BD0A
:100260000B46D340D0402024A21A9140084319469F
:1002700010BD00000EB509490EC900910192810F11
:100280008A00029369468A58054951184A68C3068C
:10029000DB0E0120984002434A600EBD04180000A6
:1002A0000002004002490A6802430A6070470000E9
:1002B0000002004010B500F0D1FB0148006810BDFD
:1002C0000000002002480068C00700D001487047C5
:1002D000000200400048E80104480068800702D599
:1002E0000120C0037047002070470000000200405A
:1002F00010B500F0B3FB0448406B41070348490FB9
:100300000068C84010BD000000020040000000204E
:1003100010B500F0A3FB0448406B4006410F0348B2
:100320000068C84010BD000000020040000000202E
:1003300008B511A000681149009009680020052245
:100340001204114216D1080301D50D4800E00D48F2
:100350008A030FD40A04920F6B469B5CCA0589047A
:10036000D20DC90E891C8008921C59435043FFF7D7
:10037000EDFE800008BD00000102020440020040C2
:10038000001BB7000048E801F3B5124881B00569C9
:100390000F4610200F4C0540403C20680426304397
:1003A0002060102000F050F82069072108432061E8
:1003B000206A0009000138432062206988430199BE
:1003C0000843206100F04AFB002D02D12068B043B1
:1003D0002060FEBD40020040F0B5194B88B0F0CB64
:1003E000009401ACE0C478CB04AF78C7840A23063C
:1003F0001B0E0ED003039B0F9B0004ADEB58114D59
:100400005B19E5B28405E40EA5401C68AC431443B7
:100410001C60420E520710D08200920F92006B4671
:100420009A58084B103BD21803015B0FC001C00E55
:100430008340106898430843106008B0F0BD000086
:10044000E41700002002004010B504460749084B9D
:1004500005E00A46491E002A01DC002010BD1A6989
:1004600020469043F5D1012010BD000080F520000A
:100470004002004010B500F073FA00F009F91F20A7
:10048000800201F0ADF8002802DA05A000F002FEBB
:100490000221302000F08EF900F070FA10BD00004B
:1004A0004661696C656420746F20736574204461D3
:1004B000746120466C6173682062617365206164B9
:1004C0006472657373210D0A0000000010B58AB0D4
:1004D00028220FA16846FFF74FFE174CE06841073E
:1004E0000CD504218843E06000F02AF86846FFF745
:1004F00055FE02466946114800F06FFDE0680107AD
:1005000004D508218843E06000F040F80AB010BD2F
:100510000D0A456D756C6174655F454550524F4DD0
:100520005F50726F636573732066696E69736820CC
:10053000210D0A0D0A0000001000002000000740F5
:1005400038B50024694601250C706D07302120461E
:10055000FFF7FCFD0846694600F0C4F968460178DB
:1005600006A000F097FD6007E84202D106A000F067
:1005700091FD641CE4B2302CE8D338BD30782532CC
:1005800058202C20000000000D0A000070B5002546
:100590000D4E2C4630212046FFF7D8FD0846F17855
:1005A00049196D1CC9B2EDB200F02EFD641CE4B215
:1005B000302CEFD3F078401CF07000F009F80349BC
:1005C0000020086070BD0000100000200001004005
:1005D00002480168490849000160704700C00040B6
:1005E00010B5592109481622882301600260036072
:1005F0000468002CF9D00648416804221143416088
:100600000448016801221143016010BD000100404F
:100610000002004000C000400346012100B5002058
:1006200049058B4203D100F017F8002811D1094980
:100630002222CA604B6001220A610A69D207FCD1FA
:100640000A68520605D50868402210430860002059
:10065000C04300BD00C0004000200B492222CA60F8
:10066000012252054A60094A8A6001220A610A6928
:10067000D207FCD10A68520605D50868402210430B
:1006800008600020C043704700C0004003AA550026
:1006900002480168012211430160704700C0004018
:1006A00005490022CA604860012008610869C00746
:1006B000FCD188687047000000C0004030B5044697
:1006C00003200B4600250005FFF7EAFF2060032BFF
:1006D00001D96D1E0CE0012B03D90648FFF7E0FF9E
:1006E0006060022B04D90348001DFFF7D9FFA0600A
:1006F000284630BD04003000054A2123D3605060F5
:100700009160012010611069C007FCD170470000A2
:1007100000C00040F3B50646002081B004460090BA
:1007200010E0A50003200005281871590746FFF7BF
:10073000E3FF3846FFF7B4FF7159884201D001202A
:100740000090641C02988442EBD30098FEBD000028
:1007500010B501229103024800F004F810BD00001A
:1007600040400040F0B5002301273C469C400C422D
:1007700008D005685C000326A640B5431646A6408F
:10078000354305605B1C102BEFD3F0BD044603A07E
:1007900000F080FC204600F09DFFFEE7496E2048F7
:1007A000617264204661756C742048616E646C658A
:1007B000720A000010B50C4C80286160A06001D95D
:1007C000012010BD082901D9022010BD00F0D2FE81
:1007D0000021FF22206101E04254491CA368994294
:1007E000FAD3002010BD00002000002002488069DC
:1007F000C000C00F7047000000000740FEB536483B
:1008000000244169254626463448006840020818FD
:10081000FFF746FF07463148304A00685268411CDE
:10082000914203D100207F1C009001E0401C009009
:10083000FFF7D6FE29490869025DFF2A10D0005D46
:100840002204000602432448BBB241691A430098BF
:100850004002019008181146FFF74EFF042715E0EB
:10086000641CE9E70069005DFF280FD0002E2DD041
:100870002104000601431848294342690198C01920
:100880001018FFF739FF00252E463F1D1348641C42
:1008900081688C42E6D30446E760002E0CD01048F5
:1008A000294601430C4842690198C0191018FFF706
:1008B00023FFE068801CE060074840692168490226
:1008C0004018FFF7A9FE00982060FEBD00022043FB
:1008D00005430126DAE7000000C0004020000020A8
:1008E0000000FFFF802801D303207047024A1269ED
:1008F000105C0870002070472000002010B500F048
:100900002FF80420FFF7CEFC1020FFF79DFD0021FB
:100910000720FFF739FD00F0DFF9084C2046FFF70C
:10092000A9FC0121002249032046FFF755FD00F0F4
:1009300095F803490020086010BD00000300C05E68
:10094000000100400121020E890751188B68012225
:10095000824013438B608868904388607047000032
:1009600010B55921044816228823016002600360F3
:100970000468002CF9D010BD00010040F8B5FFF765
:100980002FFE2B4E7068400000F0F4FD0746002457
:10099000284D07E0686961024018FFF781FE610099
:1009A0007852641C71688C42F4D30020224A05E01E
:1009B0004300FB5A934200D03060401C8842F7D37A
:1009C000306802244100795A9142696906D1400297
:1009D00008181949C943FFF78FFE25E0400208189F
:1009E000FFF75EFE0102090E000EFF291CD03269DE
:1009F0000424505468693168490209194018FFF706
:100A00004FFE0204C1B2130EFF290DD032695354B8
:100A10000102090E000EFF2908D0505401204002A7
:100A2000241D8442E6D3F8BDF460F8BDA41CFBE7A6
:100A30002000002000C00040FFFF000006498A6936
:100A40001202FCD408600A2804D188690002FCD490
:100A50000D2008607047000000000740F8B51D4DEC
:100A600028691C4944071CA000680090640F0020FE
:100A70004031096805221204114216D1080301D53C
:100A8000164800E016488A030FD40A04920F6B46FA
:100A90009B5CCA058904D20DC90E891C8008921C72
:100AA00059435043FFF752FB80000E4E022CB060BA
:100AB00002D00D49A0000858296A0907090F491CEE
:100AC000FFF744FB094930604A108018FFF73EFBEE
:100AD0007060F8BD0002004001020204001BB70074
:100AE0000048E801000000207C17000040420F0091
:100AF00010B559210A48162388220160036002605C
:100B00000468002CF9D007490B68072212059343AB
:100B10000B600B6813430B600021016010BD0000E7
:100B2000000100400002004010B50A4C7D22012166
:100B3000D200C906204600F049F820682106084383
:100B40002060081504490860206889050843206072
:100B500010BD00002000054000E100E010B588B0A5
:100B60000446202215496846FFF706FB144B144A39
:100B700014482033944202D14069000A0BE09C42A1
:100B800002D14069000B06E00F4940698C4201D157
:100B9000000C00E0000D4107490F022904D0880035
:100BA0006946085808B010BD944201D09C4202D159
:100BB000FFF79EFBF6E7FFF7ABFBF3E71C1800001F
:100BC000000005400002004000100540F7B5174640
:100BD0000646FFF7C3FF054600244008B84201D887
:100BE000022008E039462846FFF7B0FA040E02D08A
:100BF000611CFFF7ABFA0199214331607060641CFE
:100C0000604301462846FFF7A1FAFEBD10B5114822
:100C10008168C907C90F1BD0012383600E49C888AA
:100C2000421CCA800022002808D00C48CA80846B6D
:100C30005C408463C86804231843C8600889431C67
:100C40000B81002804D00A81C86808221043C860BC
:100C500010BD00002000054010000020404800406A
:100C600070B51A4DE8690026C005194C194A0028CC
:100C700011DA6078401C607000202B68A188535402
:100C8000491C89B2A180802900D3A680401CC0B233
:100C90000328F2D370BDE869C004FBD5A078401CDE
:100CA000A07004E02968A0881154401CA080A869A5
:100CB0004004F7D56868112188436860A6802670D3
:100CC000E06802210843E06070BD000000000740BA
:100CD000100000203C00002010B50A4C2046FFF711
:100CE000C9FA0121002289062046FFF775FBA006FC
:100CF000C16BFF2212049143332252048918C1634D
:100D000010BD0000103D805F10B51E48FFF71AFEB1
:100D10001D4CE1214902204600F0E2F81421204652
:100D200000F050F9A068F02188431030A06060689E
:100D30001121084360600120144900030860FFF797
:100D4000B9FA014612A000F0A5F9FFF7BBFA014677
:100D500016A000F09FF9FFF7BFFA014619A000F0B6
:100D600099F9FFF7C5FA01461CA000F093F9FFF7C7
:100D7000CFFA014620A000F08DF9A069C000FCD593
:100D800010BD0000100000040000074000E100E07A
:100D90000D0A434C4B5F476574435055467265716D
:100DA000203A202538640D0A00000000434C4B5FB8
:100DB00047657448585446726571203A2025386456
:100DC0000D0A0000434C4B5F4765744C5854467203
:100DD0006571203A202538640D0A0000434C4B5FB2
:100DE00047657450434C4B3046726571203A20255C
:100DF00038640D0A00000000434C4B5F4765745097
:100E0000434C4B3146726571203A202538640D0AF7
:100E10000000000042680A434260704710B50D4C64
:100E2000E068810715D502218843E0600A490BA0DC
:100E300000F030F9617811A000F02CF9A1781BA026
:100E400000F028F911212548FFF7E4FF0020607029
:100E5000A07010BD100000203C0000200A55415237
:100E60005430205278205265636569766564204469
:100E7000617461203A2025730A00000055415254E4
:100E8000302052782052444120284669666F6675AA
:100E90006C6C2920696E7465727275707420746947
:100EA0006D6573203A2025640A00000055415254B4
:100EB00030205278205258544F202854696D656F65
:100EC00075742920696E7465727275707420746906
:100ED0006D6573203A2025640A0000000000074079
:100EE000F0B587B00F46044600252E4618222E493D
:100EF0006846FFF741F92D492D482E4A8C4205D10D
:100F00004369006A5B015D0F000A0FE02A4B9C42B7
:100F100006D14369006A5B005D0F0004060F07E01D
:100F2000944205D1C369006B5B015D0F0607360F64
:100F3000002020630320E060A068204B1840A060E0
:100F4000012D02D0042D04D00DE0FFF7F1F901903E
:100F500009E08C4201D0944202D1FFF7C9F901E0C7
:100F6000FFF7D6F90490002F1BD0A900684640581F
:100F7000711CFFF7EBF80546790840183946FFF772
:100F8000E5F80F49801E884207D9F90068183946EC
:100F9000FFF7DCF80009801E02E00321090708437F
:100FA000606207B0F0BD00009C1700000000074021
:100FB0000002004000200740001007400FFFF0FF34
:100FC000FFFF0000026A120A12020A43026241682D
:100FD0000122D202114341607047F0B50027054657
:100FE00001263846B6070CE0002302E05B1CB34242
:100FF00009D2AC692402F9D4002F04D10B5C2B6018
:10100000401C9042F0D1F0BDF8B5204E0446B068C7
:101010000D46844201D90320F8BD3069005DA84225
:1010200024D0FFF7DDFAF068194F810723D07969E2
:101030003268801E520289180818FFF731FB21041C
:101040002A0680B21143014378693268520282183D
:10105000F068801E1018FFF74FFB30690555F068E7
:10106000C11FFF39F83903D0801CF0600020F8BDA3
:10107000FFF7C4FBFAE7012229021204A21A114366
:101080007A6933685B021818E4E70000200000204A
:1010900000C000400FB410B503A9044B044A0298E5
:1010A00000F018F810BC08BC04B01847491500003F
:1010B0000C00002002E008C8121F08C1002AFAD163
:1010C00070477047002001E001C1121F002AFBD1C8
:1010D00070470000FFB591B00F460546002606E0B8
:1010E00025280AD0149A139990476D1C761C2878ED
:1010F0000028F5D1304615B0F0BD00240094012140
:10110000F34A029400E004436D1C2B780846203B10
:1011100098401042F7D128782A280ED0022128784A
:101120000246303A092A15D8009A0A235A43303A1F
:1011300080180C436D1C0090F1E701CF009000284F
:1011400005DA012040030443009840420090022049
:1011500004436D1C28782E2815D104200443687898
:101160006D1C2A280AD101CF6D1C02900BE0029958
:101170000A225143303940186D1C029028780146EC
:1011800030390929F3D928786C2810D006DC4C288E
:101190001AD068280ED06A2817D104E0742813D01A
:1011A0007A2812D110E00120400504430CE001210F
:1011B000090501E0032109050C436978814203D147
:1011C0000120000524186D1C6D1C287803906E28E2
:1011D0001ED00CDC632831D004DC00288AD05828CB
:1011E00011D1B2E064287BD069280CD178E0732853
:1011F0002DD004DC6F2870D0702804D1A7E07528AA
:101200006CD078286BD0149A13999047761C62E0C2
:101210006002400F022807D003280AD0042838684B
:101220000AD006603F1D56E03868F117066041603D
:10123000F8E738680680F5E70670F3E7387869461E
:1012400008740020487404A80390012003E0386863
:1012500003900020C0433F1D61070FD5002101E02E
:101260000199491C029A0191914213DA8142F7DBFC
:10127000019A0399895C0029F2D10BE0002101E079
:101280000199491C01918142FADB019A0399895C19
:101290000029F5D101990098139A401A009021462F
:1012A000149B00F03BF901998019461807E0039858
:1012B00003990078491C0391149A13999047019857
:1012C000401E0190401CF2D12146149B139A0098B5
:1012D00000F014F986196D1C09E741E033E034E0B1
:1012E0000A200021049005916002410F022905D0D7
:1012F00001CFC2179446032905D007E0FF1DFF0860
:10130000FF0003CF06E000B2C2179446042902D1C1
:1013100040B2C1178C4600226146944506DA0A465F
:101320000021404291418C462D2102E0210504D547
:101330002B216A461176012103E0E10701D020212B
:10134000F7E7019154E00A200BE0102009E010209B
:10135000049000210420044308200591029003E03A
:1013600008200021059104906002410F022905D058
:1013700001CF00229446032906D006E0FF1DFF0896
:10138000FF0003CF8C4603E080B2042900D1C0B235
:101390000021019121072BD50399702906D0049AC9
:1013A0001021059B4A401A4305D00EE040216A46B1
:1013B0001176012108E06146014306D030216A46DA
:1013C00011760399517602210191049A0821059B17
:1013D0004A401A430CD16146014301D1610707D548
:1013E00030216A461176012101910299491E02912C
:1013F0000399582904D037A103910FA90F910DE04B
:1014000039A1F9E76146059B049AFEF7CEFE039BDE
:101410008C469B5C0F9A521E0F92137061460143DB
:10142000F0D10F9807A9081A20300390600704D55F
:10143000012000048443029801E0012002900399F6
:10144000884201DD401A00E0002041180290019816
:1014500009180098401A0090E00306D42146149B16
:10146000139A009800F05AF886190020049008E0BA
:1014700006A9085C149A139990470498401C761C9E
:10148000049001998842F3DBE0030CD52146149BBC
:10149000139A009800F042F8861904E0149A30205C
:1014A00013999047761C0299481E02900029F5DC9A
:1014B00008E00F980F990078491C0F91149A13991E
:1014C0009047761C0399481E03900029F1DCFBE647
:1014D000092801003031323334353637383961620A
:1014E00063646566000000003031323334353637CE
:1014F000383941424344454600000000F8B50446EF
:1015000000251E461746880404D405E039462020ED
:10151000B0476D1C641EF9D52846F8BDFFB50446DA
:10152000002581B01E46C80301D5302700E02027E2
:10153000880404D505E038460399B0476D1C641E45
:10154000F9D5284605B0F0BD10B50446FFF776FA88
:10155000204610BDFFF7D2F9FFF7D6FBFEF78AFF52
:10156000FFF7F6F8FFF7E0FAFFF758FCFEF7AEFFDB
:10157000FAE70000F0B50B30C108C900144F00268F
:10158000144A0FE003688B420BD38B4205D95C1AD7
:101590004318456830C3083B00E04368136002C04D
:1015A00004E0021D10680028ECD13046002803D169
:1015B0003868002801D00020F0BD064A06481060B7
:1015C000064A121AD208D20044C001203860D7E778
:1015D0003800002034000020C4000020C00000209B
:1015E0007CB5044602216846FFF768F80025ED4304
:1015F000002803DA1EA0FFF74DFD17E00098C00792
:1016000004D10198A04201D100207CBD1F4801688F
:101610001022114301600098022140084000009010
:1016200001946846FFF776F8002801DA28467CBD69
:1016300002216846FFF742F80098C00702D10198DE
:10164000A04208D012A0FFF725FDFEF7C1FF184900
:1016500000200860EAE7214616A0FFF71BFDFFF710
:10166000C5F80028FBD0012081078860CCE7000086
:101670000A52656164205573657220436F6E666916
:1016800067206661696C6564210A000000C0004043
:101690004572726F723A2050726F6772616D2043AB
:1016A0006F6E666967204661696C6564210A000097
:1016B000000100400A536574204461746120466C47
:1016C00061736820626173652061732030782578CA
:1016D0002E0A000010B50446016810A0FFF7DAFCDE
:1016E00011A06168FFF7D6FC12A0A168FFF7D2FC39
:1016F00013A0E168FFF7CEFC14A02169FFF7CAFC34
:1017000015A06169FFF7C6FC16A0A169FFF7C2FC2E
:1017100017A0E169FFF7BEFC10BD00007230202069
:101720003D20307825780A00723120203D20307825
:1017300025780A00723220203D20307825780A0072
:10174000723320203D20307825780A007231322013
:101750003D20307825780A006C7220203D203078BA
:1017600025780A00706320203D20307825780A0013
:10177000707372203D20307825780A000048E80117
:101780000080000000D8B80500960000006CDC0264
:101790000000000000000000006CDC020048E801CE
:1017A0000000000000800000006CDC02000000006F
:1017B000009600000048E8010000000000800000E2
:1017C000006CDC0200000000009600000048E80108
:1017D0000000000000800000006CDC02000000003F
:1017E0000096000000000000040000000800000057
:1017F0000C000000000000000000000000000000DD
:1018000010000000000000000400000008000000BC
:101810000000000004000000080000000048E8018B
:101820000080000000000000000000000000000038
:101830000096000000000000006CDC025C18000054
:10184000000000203C000000B410000098180000C8
:101850003C00002084020000C410000000D8B8053D
:101860006000000000D8B805000000000100000082
:101870000000000000000000000000000000000068
:101880000000000000000000000000000000000058
:08189000000000000000000050
:04000005000000F106
:00000001FF
